:020000040800F2
:10000000C0EF0020DD030008259C00087182000875
:10001000219C00085D2D0008B9FA000800000000CE
:100020000000000000000000000000001D030008A8
:100030001B390008000000007903000867D300089E
:10004000F7030008F7030008F7030008F7030008A8
:10005000F7030008F70300081D390008F70300083C
:10006000F70300082739000831390008F7030008B2
:10007000F7030008F7030008F7030008F703000878
:10008000F7030008F7030008F7030008F703000868
:10009000612D0008F7030008F70300083B3900084A
:1000A000F7030008F7030008F7030008F703000848
:1000B000F7030008F7030008F7030008F703000838
:1000C000F7030008F7030008F7030008F703000828
:1000D000F7030008C9DC0008F703000835DD000855
:1000E000F7030008F7030008F7030008F703000808
:1000F000F7030008F7030008F7030008252F00089E
:10010000F7030008F7030008F7030008F7030008E7
:10011000F7030008F7030008F7030008F7030008D7
:10012000F7030008A12F0008B12F0008F70300080B
:10013000F7030008F7030008F7030008F7030008B7
:10014000712D0008F7030008F70300083DA0000820
:10015000F7030008493800085938000875DE000820
:10016000F7030008F7030008F7030008F703000887
:10017000F7030008F7030008F70300080000000079
:10018000F7030008F703000800F002F800F0B6F8E3
:100190000AA090E8000C82448344AAF10107DA45E2
:1001A00001D100F0ABF8AFF2090EBAE80F0013F07E
:1001B000010F18BFFB1A43F00103184704F30100B5
:1001C00024F301000A444FF0000C10F8013B13F037
:1001D000070408BF10F8014B1D1108BF10F8015BA0
:1001E000641E05D010F8016B641E01F8016BF9D193
:1001F00013F0080F1EBF10F8014BAD1C0C1B09D1EA
:100200006D1E58BF01F801CBFAD505E014F8016B5B
:1002100001F8016B6D1EF9D59142D6D370470000ED
:100220000023002400250026103A28BF78C1FBD8FF
:10023000520728BF30C148BF0B6070476E2900F0DD
:10024000CB85702900F0BD8266291BF0A785652942
:100250001BF0A48567291BF0A18561291BF0A085EF
:1002600003681B0A28BF41F08001692900F07885E6
:10027000642900F07585752900F072856F2901F0F9
:10028000A880782900F08982E92901F04380E429D7
:1002900001F04080F52901F03D80EF2901F0A580B3
:1002A000F82900F088820368DB0928BF41F080014B
:1002B000632901F0F182732901F0F682E32901F04C
:1002C0000183F32901F00683002070471FB51BF05E
:1002D000ADFC9DE8030000F06DFC01F095F8040012
:1002E000002000211AF08EFB401C606000200021DD
:1002F0001AF072FBE0601FBD10B510BD01F084FB69
:100300001146FFF7E3FF16F0BFFE01F0ABFB03B4AD
:10031000FFF7F2FF03BC01F023FC00002C4B19682F
:100320000868B0E8F04F80F30988BFF36F8F4FF093
:10033000000080F311887047000000000848006842
:10034000006880F308884FF0000080F3148862B6DC
:1003500061B6BFF34F8FBFF36F8F00DF00BF00BFE9
:1003600008ED00E0DFF80C00016841F47001016065
:10037000704700BF88ED00E0EFF30980BFF36F8F97
:10038000134B1A681EF0100F08BF20ED108A20E9E9
:10039000F04F106009B44FF0500080F31188BFF3A4
:1003A0004F8FBFF36F8F19F00BFD4FF0000080F3FC
:1003B000118809BC19680868B0E8F04F1EF0100FEA
:1003C00008BFB0EC108A80F30988BFF36F8F7047C5
:1003D000E4030020EFF305807047000009488047E0
:1003E00009480047FEE7FEE7FEE7FEE7FEE7FEE717
:1003F000FEE7FEE7FEE7FEE704480549054A064B2F
:100400007047000051D4000889010008C0AF0020E7
:10041000C0EF0020C0CF0020C0CF00209FED1A1AEF
:10042000F5EE000A40EE010ABDEEE00AF5EEC00A64
:1004300010EE100AF1EE10FA38BF401E00EE100A5E
:100440001349F7EE001AB8EEC00A30EEC00ADFED2D
:100450000F0A20EE200AFCEEC00A10EE900AC0F34C
:10046000080000EE900A01EB8000F8EE600A90EDC3
:10047000011A70EE600A90ED000A71EEE01A21EEAA
:10048000800A00EE810A704783F9223E0000004492
:100490002CEA0108DFED190AB5EEC00A60EE200A69
:1004A000BDEEE01A11EE100AF1EE10FA38BF401E50
:1004B00000EE100A1349F7EE001AB8EEC00A30EE4B
:1004C000C00ADFED0F0A60EE200ABCEEE00A10EE73
:1004D000100AC0F3080000EE100A01EB8000B8EE2D
:1004E000400A90ED011A70EEC00A90ED000A71EE1C
:1004F000E01A21EE800A00EE810A704783F9223E5D
:10050000000000442CEA010870B5064600F036FBF6
:10051000056806F10B0020F00704B4429CBF0020E0
:1005200070BD2B466A68BAB11068A04210D304F1BE
:10053000080188423CBF5068586007D351681019C1
:1005400041601168091B016058601460101D70BD86
:1005500013465268002AE7D12146284600F016FBD0
:100560000028DED170BD70B50446051F00F006FB03
:100570000068002C14BF446870BD002C18BFAC424A
:100580003CBF20466468F8D301680A18AA4218BF25
:10059000456003D12A680546114401602868411965
:1005A000A1421CBF6C6070BD61686960216808442D
:1005B000286070BD53EA020C00F069802DE9F04B11
:1005C0004FF00006002B1FBFB3FA83F503FA05F4C2
:1005D00024FA05F65E4012BF1643B2FA82F502FA1B
:1005E00005F4C5F120051EBF22FA05FC44EA0C04FF
:1005F000203556EA044C4FEA144418BF641C4FF0EF
:1006000000084FF00009904271EB030C39D3002928
:1006100019BFB1FA81F701FA07F6B0FA80F700FACC
:1006200007F6C7F120071EBF20FA07FC46EA0C06B2
:100630002037B6FBF4FCA7EB0507103F07F01F0BB4
:10064000CBF120060CFA0BFB2CFA06F644BFB3469E
:100650000026202FA4BF5E464FF0000B5BEA060C7D
:1006600008BF4FF0010B19EB0B09ABFB027C48EB09
:100670000608C01B06FB02CC0BFB03CC71EB0C0184
:10068000C1E70B46024641464846BDE8F08B13B52C
:100690004FF000004FF00001AFF30080BDE81C40B8
:1006A000704700001CB50C46064B7B446946009021
:1006B000204600F0B8FD04460020694600F0C6FD63
:1006C00020461CBD9F0B00000FB41CB5084B06AAAA
:1006D0007B4469460090059800F0A5FD0446002083
:1006E000694600F0B3FD20461CBC5DF814FB000019
:1006F000790B000070B5044685690068C10601D514
:10070000302600E02026C00707D070BDD4E90121C3
:1007100030469047206A401C20626D1EF6D570BDA1
:1007200070B5044685690078C00707D170BDD4E96B
:10073000012120209047206A401C20626D1EF6D5C2
:1007400070BD0000F0B40D460188090502D5214CAA
:100750007C4402E01F4C7C440E34002100F124064E
:1007600008E002F00F071209E75D42EA03721B0975
:100770007754491C52EA0307F3D102780023120789
:1007800004D5702D06D009B1022311342246F0BCE5
:1007900000F08CBA01231034F8E770B504460D461A
:1007A0002146106800F050FA024629462046BDE86E
:1007B00070400023C6E7D21D22F00703D3E90023CF
:1007C000C0E70368126843F0200303600823C36195
:1007D0000023B7E7DCEA01002DE9F05F8946044613
:1007E0004FF0000ADFF874B1FB44C0F820A02046A7
:1007F000E1688847002874D0252806D0D4E9012173
:100800009047206A401C2062F1E700265F462046A0
:10081000E16888472028054607DB312D05D2781985
:1008200010F8200C08B10643F1E7B00701D526F017
:100830000406C4F81CA00027C4F818A02A2D09D06B
:1008400028460FF068FB38B304EB8708303DC8F842
:10085000185019E059F8041B204604EB87029161F7
:10086000E1688847012F054618D1E069002820DAA1
:1008700026F020061DE0D8F8180000EB800005EBFC
:1008800040003038C8F818002046E168884705461F
:100890000FF041FB0028EED1012F0AD02E2D08D1F8
:1008A0002046E16888477F1C0546022F46F0200657
:1008B000C4DBA069002803DA404246F00106A061CB
:1008C000F00701D026F010066C2D0BD0682D09D052
:1008D0004C2D39D06A2D35D0742D35D07A2D33D0AA
:1008E00016E038E0E1682F4620468847B8420546C2
:1008F00009D16C2F26D04FF48060E1680643204672
:100900008847054604E06C2F1AD04FF480700643E8
:100910000DB3A5F14100192802D8203546F4006630
:100920004A462946204626604E46FFF787FC80B19E
:1009300001280BD0F61D26F0070000F1080956E744
:100940004020E4E78020D8E70020D6E706F104093C
:100950004DE7284652E7206ABDE8F09F6CEA0100A7
:1009600040EA0103024630B59B0710D14FF0013435
:1009700000E008C208C91D1B9D4315EAC41FF8D03A
:1009800013F0FF0102F8011B0DD01B0AF8E711F864
:10099000013B002B02F8013B05D011F8013B002B75
:1009A00002F8013BF3D130BD10B5431C02E010F852
:1009B000011B71B18107FAD14FF0013202C88C1AC4
:1009C0008C4314EAC211F9D0C01A0A0603D0C01E23
:1009D00010BDC01A10BD0A0401D0801E10BD09024E
:1009E000FCD0401E10BD032A40F2308010F0030CF2
:1009F00000F0158011F8013BBCF1020F624498BF72
:100A000011F801CB00F8013B38BF11F8013BA2F10E
:100A1000040298BF00F801CB38BF00F8013B11F089
:100A2000030300F02580083AC0F0088051F8043B29
:100A3000083A51F804CBA0E80810F5E7121D5CBF96
:100A400051F8043B40F8043BAFF30080D20724BFC9
:100A500011F8013B11F801CB48BF11F8012B24BF5D
:100A600000F8013B00F801CB48BF00F8012B7047AC
:100A700010B5203AC0F00B80B1E81850203AA0E839
:100A80001850B1E81850A0E81850BFF4F5AF5FEA6D
:100A9000027C24BFB1E81850A0E8185044BF18C920
:100AA00018C0BDE810405FEA827C24BF51F8043BC7
:100AB00040F8043B08BF7047D20728BF31F8023B1B
:100AC00048BF11F8012B28BF20F8023B48BF00F8AF
:100AD000012B704702F0FF0343EA032242EA02427D
:100AE00000F002B84FF000020429C0F0128010F0AC
:100AF000030C00F01B80CCF1040CBCF1020F18BFFA
:100B000000F8012BA8BF20F8022BA1EB0C0100F08C
:100B10000DB85FEAC17C24BF00F8012B00F8012B5F
:100B200048BF00F8012B70474FF0000200B5134694
:100B300094469646203922BFA0E80C50A0E80C50FD
:100B4000B1F12001BFF4F7AF090728BFA0E80C50AE
:100B500048BF0CC05DF804EB890028BF40F8042BA7
:100B600008BF704748BF20F8022B11F0804F18BF14
:100B700000F8012B70477047704770470048704776
:100B800064AF0020704770477047704738B504461F
:100B90000A4600206946AFF30080002808BF38BD30
:100BA00002460099204600F037FC012038BD0120A4
:100BB00000F022BFF8B5AFF30080054600200C46D8
:100BC000102000BF0646A819A0420DD9324669463A
:100BD0000020AFF30080070008BF00F00DFF009871
:100BE000A04218BF0546C419FFF7C8FF05600746B5
:100BF000F01D20F007004619284600F00AF8B4421C
:100C000008BFF8BDA21B31463868BDE8F84000F0C7
:100C100003BC00210160C0E901107047102070473B
:100C200010B500F0F5FB006810BD10B5044600F0EB
:100C3000EFFB046010BD09684A0501D540B270475A
:100C4000C905FCD500B2704709684A0501D5C0B294
:100C50007047C905FCD580B2704770B50C46054693
:100C6000012A05D02878800600D5EA69002302E031
:100C7000012305E05B1C934202D2E05C0028F9D11D
:100C8000A869E618C01AA861286A1844286228468C
:100C9000FFF730FD04E0D5E9012114F8010B90477E
:100CA000B442F8D32846FFF73BFD70BD2DE9F0476D
:100CB0000D4699469246044600F1240801688806CC
:100CC00004D5E06921F01001216000E00120A84274
:100CD00001DD471B00E00027A1697A1902EB09003A
:100CE000081AA0612078C00602D42046FFF702FD52
:100CF000002608E0D4E901211AF806009047206A8E
:100D0000401C761C20624E45F4DB2078C0060AD5D4
:100D10002046FFF7EFFC06E0D4E9012130209047A0
:100D2000206A401C2062381EA7F10107F4DC07E0AE
:100D3000D4E9012118F805009047206A401C206280
:100D4000281EA5F10105F3DC2046FFF7E9FC207819
:100D5000000602D50220BDE8F0870120FBE7000075
:100D60002DE9F0410646002410687529314616A584
:100D700010D0FFF760FF002802DA404213A507E019
:100D800031688A0701D512A502E0490704D511A5EB
:100D9000012401E0FFF758FF00210A2206F1240791
:100DA00009E0B0FBF2FCB0FBF2F302FB1C003030B8
:100DB00078541846491C0028F3D123462A46304669
:100DC000BDE8F041FFF772BF000000002D000000F9
:100DD0002B0000002000000011680268006A530523
:100DE00001D508700AE0D30501D5088006E0130696
:100DF00003D5C217C1E9000200E008600120704776
:100E000070472DE9FF4F0C461E464FF0FF378BB061
:100E1000D2E90001DDF860800A908A46C1F30A55E4
:100E200005B93D46002108461AF0A8FFBAF1000FA7
:100E300000F4400005DA00EB80004FF4400101EAC5
:100E400050004FEA9059B9F1010F00DDB9460A98F8
:100E500050EA4A000ED044F61050A5F2FF35454343
:100E60002F14B8F1000F1ED07542291E1EDDC9F1E6
:100E700000021CE0B8F1010F4FF0000001D030215A
:100E800003E0F24305E02154401CB042FBDB304656
:100E90000022002121540B99C1F80880C1E90020EB
:100EA0000FB0BDE8F08FBD1B6D1CDEE74A4600DACF
:100EB000694206A800F012FD06AB93E8070003ABF9
:100EC00083E8070050460A9900F0C7FE8DE8070046
:100ED000A0F500501F3800900398002D09DD42F264
:100EE0001F014A46084403A90390684601F026F909
:100EF00008E0A0F500504A461F3803A90390684651
:100F000001F030F98DE807000004000C03D04FF029
:100F1000FF30410800E01046B8F1000F03D0002276
:100F2000009215461EE0751E05D400F08FFA30328F
:100F300062556D1EF9D5B3460122084302D0002246
:100F40007F1C04E02078302801D100227F1E002A77
:100F5000099786D01DE0112D07DA00F077FA3032BC
:100F600062556D1C50EA0102F5D1084302D0009889
:100F7000C8B10EE00021681E05E0235C625C63548A
:100F80002254401E491C8142F7DBAB46A81B401E81
:100F90000990002004F80B000B98099AC0F808800B
:100FA000C0E9002B7CE711264FF0000859E72DE936
:100FB000F04F88460446D21D22F0070191B0D1E9D6
:100FC0000001CDE90A010EF079FD02460B98C00F31
:100FD00001D02D2007E02068810701D52B2002E0F9
:100FE000202101EAC000032A099001D0072A05DB6D
:100FF00003464146204600F005FC0BE120788006C0
:1010000001D5E06900E00620B8F1650F814606D001
:10101000B8F1660F18D0B8F1670F70D131E0002039
:10102000B9F1110F009001DB112301E009F1010377
:101030000AAA01A90CA8FFF7E4FEDDE90C7000265E
:1010400009F10105834647E001204B4600904FF02F
:1010500000470AAA01A90CA8FFF7D3FEDDE90DB0ED
:101060000C995D46002610B909F101000D18B9EB85
:10107000050003D4C0F1FF3609F10105A5EB090015
:101080002BE0B9F1010F01DA4FF001090020B9F1AD
:10109000110F0090484601DD112300E003460AAA23
:1010A00001A90CA8FFF7ADFEDDE90C704D46002646
:1010B0008346207800070AD4AB4500DA5D4601A8D4
:1010C000012D04DD411911F8011C302907D04F45CD
:1010D00002DA17F1040F04DA012082460FE06D1ED8
:1010E000EEE7002F02DCED1B3E4403E0781CA84233
:1010F00000DD7D1CB81B00F1010A4FF0004720788D
:10110000000703D4AA4501DB4FF0FF3A0021B7F1F5
:10111000004F0DF143088DF8431024D002202B23FB
:10112000002F01DA7F422D230A21021EA0F10100C7
:1011300000DC5FB197FBF1FC97FBF1F201FB1C7C3B
:1011400017460CF1300C08F801CDEEE7A8F10100CC
:1011500003702188090501D5452100E06521A0F132
:10116000010800F8011C09980FA9A1EB0807FF1D51
:1011700000B10120411901EBEA70A1693844081A55
:10118000401EA0612078C00602D42046FFF7B2FAC4
:10119000099828B1D4E901219047206A401C2062B7
:1011A0002078C00622D52046FFF7A4FA1EE0002EC4
:1011B00004DBB34502DD01A8805D00E03020D4E906
:1011C00001219047206A401C2062761CAAF1010090
:1011D0005FEA000A0AD100F017F9C0680168405CB4
:1011E000D4E901219047206A401C2062281EA5F105
:1011F0000105DCDC07E0D4E9012118F8010B904778
:10120000206A401C2062381EA7F10107F3DC20464B
:10121000FFF786FA032011B043E6000001694A1C7B
:1012200002610878704700B58FB0CDE90131002127
:10123000059105497944CDE9031011466846FFF749
:10124000CBFA0FB000BD0000E5FFFFFF0A6802F80F
:10125000010B0A60704700002DE9FF5F15468A46C2
:101260000446DFF8AC80F8440027D8E900103E4679
:10127000CDE9001010E03AF816106A4602A800F016
:101280009BFB411C07D02178890603D5E2693918F8
:1012900091420DD80744761C2078800602D5E0697B
:1012A000B84205DDAE42E6DB3AF816000028E2D18E
:1012B000A069C01BA0612046FFF71CFAD8E9001006
:1012C000CDE90010002017E03AF818106A4602A88D
:1012D00000F072FBB0F1FF3F81460BD000250DF10D
:1012E000080B05E0D4E901211BF8050090476D1CAF
:1012F0004D45F7D308F10100B0428046E4DB206A97
:10130000384420622046FFF70BFABDE8FF9F00003B
:1013100002E001002DE9F0418046D21D22F00702D3
:101320000025D2E90002F52915A614D0011E72F19C
:10133000000106DA0023D0EB030063EB020211A6E2
:1013400008E0D8F800108B0701D50FA602E0490786
:1013500001D50EA601251146002408F1240704E05A
:1013600000F074F830323A55641C50EA0102F7D1AB
:101370002B46324621464046BDE8F041FFF796BC79
:10138000000000002D0000002B00000020000000E5
:1013900030B4002100F1240408E002F00705D2086F
:1013A000303542EA4372DB086554491C52EA0305B2
:1013B000F3D10468002310A2250707D5A40600D4A2
:1013C00021B1C46901230DA2641EC46130BCFFF7C2
:1013D0006DBC10B5044621461068FFF735FC024687
:1013E0002046BDE810400023D2E7D21D22F00701BD
:1013F000D1E90023CCE7000000000000300000002D
:10140000004870475CAF0020004870477CAF002068
:10141000004870475CAF0020034640688C460028B7
:1014200018BF88423CBF03464068F8D31868184488
:10143000884207D00CF1030020F00700001D411A7C
:10144000521A0146081D0A60FFF78DB830B5B0F199
:101450000A024FEA900E71F100034EEA817EB0EB72
:101460000E0061EB91014FEA101E4EEA017E10EB77
:101470000E0041EB11114FEA102E4EEA016E10EBF7
:101480000E0041EB11214FEA104E4EEA014E10EBD7
:101490000E0041EB1141401841F100014FEAD0002C
:1014A00040EA41704FEAD10110EB80054FEA810418
:1014B00044EA907444EB01046D1944EB0404521B9C
:1014C000A3414FF0000348BF0A3200D530BD401C95
:1014D00041F1000130BD00001FB584B000200A9C1E
:1014E00006AB04AA02A90094AFF3008018B1DDE9AD
:1014F000020108B010BD0348204000F0C1FA0020EE
:101500000146F6E70000207C2DE9F04F04460D4629
:10151000D21D22F0070089B0D0E90097484639462D
:101520000EF0CCFA0246F80F01D02D2307E0206818
:10153000810701D52B2302E0202101EAC0038DF8A9
:1015400020300BB1012000E00020032A824601D0A8
:10155000072A04DB2946204600F054F93FE12078B1
:10156000800601D40D2500E0E569C7F30A560D2D6C
:1015700049DA00214FEA175B08461AF0FFFB002FFB
:1015800000F4400007DA00EB80004FF4400100EB6C
:10159000D07001EA60008115012901DD4FF0FF31B3
:1015A00000224FEA850CBCF1180F06D31346ACF1AC
:1015B00018004FF08052C24003E04FF4801323FA2A
:1015C0000CF30CF10C0CBCF1200F04D3ACF1200C8B
:1015D00009FA0CF001E007FA0CF000294FF000487E
:1015E00001DD18B90FE00ED140450CD319EB02090B
:1015F0005F4121B9404502D19F4329EA0209BBEB73
:10160000175F00D0761C2088000502D57B487844FF
:1016100002E07A487844193808AA302302F80A30E0
:10162000037C0AF10101002E0AF1020A53546A46B2
:1016300002DC4FF0300101E04FF031014FF00108C2
:101640008DF8001002D0A6F2FF3603E059EA4701F8
:1016500000D06B4E002D02DC2178090704D54FF035
:1016600002082E218DF80110C44600210BE0C7F3BB
:1016700003433F01C35C491C6D1E02F80830052975
:1016800008F1010801DA002DF1DC00210CE000EB8B
:101690001973491C1B786D1E082902F808304FEA9F
:1016A000091908F1010801DA002DF0DC21688B0628
:1016B00002D516E0A8F10108E04505DD02EB0803BC
:1016C00013F8013C302BF5D0B8F1000F09DD02EB27
:1016D000080313F8013C2E2B03D1090701D4A8F10C
:1016E0000108002D05DD3E2102F808106D1E08F1ED
:1016F0000108407C002E02F8080008F1010804DA15
:101700002D20764202F8080002E02B2002F80800A3
:101710000A214FF47A70864208F101080BDB96FB30
:10172000F0F3303302F8083096FBF0F308F10108CB
:1017300000FB136601E0642E0CDB642096FBF0F3E3
:10174000303302F8083096FBF0F308F1010800FB93
:10175000136601E00A2E06DB96FBF1F0303002F84A
:10176000080008F1010896FBF1F001FB1060303031
:1017700002F80800A16908F1010808EB050202EB74
:101780000A00081AA0612078C00602D42046FEF79D
:10179000B1FF216A08AE01EB0A00206204E0D4E93F
:1017A000012116F8010B9047BAF1010AF7D220780F
:1017B000C00602D52046FEF79DFF6E4609E016F8EA
:1017C000010B3E280FD0D4E901219047206A401C2C
:1017D0002062B8F10108F2D22046FEF7A1FF09B05D
:1017E0000320BDE8F08F206A2844206203E0D4E99A
:1017F0000121302090476D1EEBD3F8E775DC010026
:1018000002FCFFFF2DE9F0411F4604460326016854
:10181000072A01F4006004DB08B116A505E016A54F
:1018200003E008B115A500E015A521F01000206027
:10183000A069C01EA0610FB1401EA0612046FEF746
:1018400059FF4FB1D4E9012138469047206A401C26
:101850002062C01C206206E0206AFAE7D4E9012178
:1018600015F8010B9047761EF8D22046FEF758FF78
:10187000BDE8F0814E414E006E616E00494E46005B
:10188000696E660010B5436913B1AFF3008001E0E3
:10189000FFF7E3F9012010BD127800F124010A706E
:1018A00000224A700122EDE711684FF0FF32E9E7AC
:1018B00010B5436913B1AFF3008001E0FFF7CCFC32
:1018C000012010BD128800F1240182840022C2840C
:1018D0000122EDE711684FF0FF32E9E72DE9F0470B
:1018E000814616468AB0334878440DC88DE80D000D
:1018F00030487844801C03AC0DC884E80D0041F6E4
:101900009B300844372190FBF1F290FBF1F5A5F1F3
:10191000800501FB12041B3C02D56442012000E05B
:101920000020DFF890A080460027FA44AAF1BE0A02
:101930000DE0E00709D03246684607EB47010AEBA5
:10194000810100F00FFC8DE8070064107F1C002C63
:10195000EFD1184F7F44AC3F18E0E80714D007EBF5
:1019600004100DF1180A90E80E008AE80E00C06815
:10197000F04201D198190890324606A903A800F058
:10198000F1FB03AB83E807006D10641C002DE4D16C
:1019900032466946B8F1000F03A802D000F0CEFB32
:1019A00001E000F0DFFBC9E90001C9F808200AB036
:1019B000BDE8F0872CDA010070B516460C460546E6
:1019C00000F048F8036893F80101012806D0FF2CC5
:1019D0000FD8185D68B101202C7070BDD3F80701D5
:1019E0003246214603F2071303442846BDE87040FF
:1019F00018474FF0FF3070BD10B500F049F8BDE852
:101A0000104000F038B870477546FFF7F9FCAE4655
:101A100005006946534620F00700854618B020B5FA
:101A2000FEF7EAFCBDE820404FF000064FF000074B
:101A30004FF000084FF0000B21F00701AC46ACE876
:101A4000C009ACE8C009ACE8C009ACE8C0098D46E3
:101A50007047000010B5FFF7D7FC001D10BD00BF98
:101A6000A58F010010B50446AFF300802046BDE805
:101A70001040FEF74CBC002801D000F071B8704750
:101A800010B500F08DF8BDE81040FFF7F4BF00007E
:101A900010B5012805D0002103A000F067F801204F
:101AA00010BD09A1F8E7000053494752544D454D78
:101AB0003A204F7574206F662068656170206D65EF
:101AC0006D6F7279000000003A2048656170206DEA
:101AD000656D6F727920636F7272757074656400E2
:101AE0004FF0013C50F8042B51F8043B9A4221D1AD
:101AF000A2EB0C03934313EACC1317D150F8042B39
:101B000051F8043B9A4215D1A2EB0C03934313EA1C
:101B1000CC130BD150F8042B51F8043B9A4209D155
:101B2000A2EB0C03934313EACC13DBD04FF000007D
:101B3000704700BFD01A01BAB1FA81F101F0180163
:101B400022FA01F0CB40C1F12001DBB2C0B2C01AD1
:101B50002CFA01F3D11A914311EAC311E6D170476F
:101B600001491820ABBEFEE72600020070B505460D
:101B70000C460A2000E06D1C00F068F835B12878AA
:101B80000028F8D102E0641C00F060F814B120785D
:101B90000028F8D1BDE870400A2000F057B80000D6
:101BA00010B5022803D0410103D50DA112E0002099
:101BB00010BD010101D50FA10CE0C10001D511A19B
:101BC00008E0810001D512A104E0400001D513A175
:101BD00000E0002115A0FFF7C9FF012010BD0000A3
:101BE000496E76616C6964204F7065726174696FCB
:101BF0006E000000446976696465204279205A6568
:101C0000726F00004F766572666C6F77000000009F
:101C1000556E646572666C6F77000000496E65787A
:101C200061637420526573756C74000053494746B4
:101C300050453A2041726974686D65746963206526
:101C40007863657074696F6E3A20000008B5694664
:101C50008DF800000320ABBE08BD5FEA400C08BF52
:101C600091F0000F4FEA8C234FEAC12243EA515111
:101C70004FEA1C5018BF00F5F0404FEA300018BF83
:101C800041F000415FEA6C5C00F02980BCF1FF3F4D
:101C900008BF40F080407047130C06BF12044FF09D
:101CA000100C4FF0000C130E04BF12020CF1080CC4
:101CB000130F04BF12010CF1040C930F04BF920028
:101CC0000CF1020CD30F04BF52000CF1010C1146B1
:101CD0004FF00002A0F11F00A0EB0C00704711F0C4
:101CE000004F08BF704731F000413FF4D5AF0B0CF7
:101CF00006BF09044FF0100C4FF0000C0B0E04BF90
:101D000009020CF1080C0B0F04BF09010CF1040CC3
:101D10008B0F04BF89000CF1020CCB0F04BF4900EC
:101D20000CF1010CCCF12003A0EB0C0022FA03F320
:101D300002FA0CF241EA030100F10100704720F0C1
:101D40007F4C80EA030023F07F47ACEB070303F5E9
:101D50007C5300F0004003F1FF032DE980494FEA76
:101D6000154B09B44FEA144325EA0B4E24EA034805
:101D70000FF2042606EB132749083E785FEA320289
:101D800003FB0667C7F5000707FB06F64FEA543763
:101D90004FEAD64606F1020607FB066CCCF1005C62
:101DA0004FEA1C472CEA074C07FB06F40CFB06F530
:101DB00004EB15464FEA961634BF00204FF0004062
:101DC0004FEAD13706FB07FC4FEA1C4C0CFB0BF724
:101DD000D21B03FB0CF761EB07010CFB0EF7B0EB1A
:101DE000074072EB17420CFB08F734BFA2EB074227
:101DF000B2EB074261EB17414FEA0C444FEA9107FF
:101E000006FB07FC4FEA1C4C0CFB0BF7B0EBC74082
:101E100072EB573203FB0CF734BFA2EBC742B2EBB5
:101E2000C74261EB57310CFB0EF7B0EBC70072EB0A
:101E300057720CFB08F734BFA2EBC702B2EBC70224
:101E400061EB5771039F4FEA816141EA921104EB04
:101E5000CC044FEAD1374FEA826206FB07FC42EA24
:101E600090124FEA80604FEA1C4C0CFB0BF7D21B20
:101E700003FB0CF761EB07010CFB0EF7B0EB07401F
:101E800072EB17420CFB08F734BFA2EB0742B2EB30
:101E9000074261EB17414FEA8C554FEA910704EB7B
:101EA0009C2406FB07FC4FEA1C4C0CFB0BF7B0EB29
:101EB000C74072EB573203FB0CF734BFA2EBC742AB
:101EC000B2EBC74261EB57310CFB0EF7B0EBC7002A
:101ED00072EB57720CFB08F734BFA2EBC702B2EBF0
:101EE000C70261EB577115EB4C254FEA816141EA5E
:101EF00092114FEA82624FEAD13742EA901206FB12
:101F000007FC44F100044FEA80604FEA1C4C0CFBD4
:101F10000BF7D21B03FB0CF761EB07010CFB0EF771
:101F2000B0EB074072EB17420CFB08F734BFA2EB93
:101F30000742B2EB074261EB174115EB1C154FEA64
:101F4000813141EA92414FEA823242EA90424FEABD
:101F500080304FEA0C7644F1000448EA03434EEA2D
:101F60000B484FF0000EB2EB080C71EB030724BFD7
:101F7000624639464EEB0E0E4FF0000B00185241F0
:101F800049414BEB0B0BB2EB080C71EB03077BF1F8
:101F9000000B24BF624639464EEB0E0E4FF0000B8D
:101FA0000018524149414BEB0B0BB2EB080C71EBA3
:101FB00003077BF1000B24BF624639464EEB0E0E41
:101FC00051EA020718BF46F0010616EB0E7655F1EE
:101FD000000254F1000103D5BDE88901BDE8008885
:101FE000BDE88901BDE80048B619524141EB010145
:101FF000A3F10103704780807F7E7D7C7B7A7978B6
:10200000777676757473727171706F6E6E6D6C6CBD
:102010006B6A6A696868676666656464636362615F
:102020006160605F5F5E5E5D5D5C5C5B5B5A5A59E0
:10203000595858575756565555555454535352524C
:102040005251515050504F4F4F4E4E4D4D4D4C4CA4
:102050004C4B4B4B4A4A4A494949484848474747ED
:10206000474646464545454444444443434343422A
:10207000424242414141002B26D4770021D01CB579
:102080004FEA370703B44FF010004FF0100119F07A
:1020900075FE0FBCBDE810400BF1010BBBF1010F49
:1020A00008BF5FEA170722BF12F1010211F1010117
:1020B0004FF0004143F1000300F0004043EA00000C
:1020C0007047F9D35708DAE746EA064613F1400F9E
:1020D0004FEA16461FDD13F1200FDFBF16430A46F5
:1020E000002120335B42C8D0C3F1200746EA0646F0
:1020F00002FA07F74FEA164646EA0706C3F1200739
:1021000022FA03F201FA07F721FA03F14FF0000374
:1021100042EA0702B1E746EA020646EA06464FEA05
:10212000164646EA0106BCBF46EA0646360C4FF0A4
:1021300000034FF000024FF000019EE72DE9C04878
:10214000934630B491E8380007C831EA400C48BFE4
:1021500034EA430C03D5FFF7F2FDFFF78CFFF0BC28
:10216000BDE800882DE9C048934630B491E83800B6
:1021700007C810F0804F08BF13F0804F03D100F064
:1021800005F8FFF778FFF0BCBDE8008820F07F4736
:1021900080EA030023F07F4C07EB0C03A3F57C538C
:1021A00000F00040A3F1FE0392F0000F00F0B380B6
:1021B00095F0000F00F077802DE901494FEA1140BA
:1021C0004FEA144621EA004800FB06FC24EA0647D1
:1021D00008FB06F607FB08F800FB07F718EB0648B4
:1021E0004CEB164C4FEA124B18EB07484FEA1546DA
:1021F0004CEB174022EA0B4E0BFB06FC25EA064788
:102200000EFB06F607FB0EFE0BFB07F71EEB064E5A
:102210004CEB164C4FF000061EEB074E4CEB174BE9
:1022200018EB0B0840F1000018EB0E0B58EB000800
:1022300040F100008F1A4FF000013CBFC943661BFC
:1022400014BFB5EB040C00213CBFC943F61B4FEA99
:1022500017444EEA8E0E27EA04454FEA1C4704FB5A
:1022600007622CEA074C05FB07F70CFB05F604FB9D
:102270000CFC16EB074642EB174216EB0C4642EB02
:102280001C421BEB060658EB0202414146EA9E0641
:1022900001D5BDE80189B619524141EB0101A3F115
:1022A0000103BDE801894FEA14454FEA114724EACA
:1022B000054621EA074C05FB07F406FB07F70CFB74
:1022C00006F105FB0CFC11EB074144EB17444FEA08
:1022D000124711EB0C4144EB1C4422EA074C05FB6E
:1022E00007F206FB07F70CFB06F605FB0CFC16EBEA
:1022F000074642EB174216EB0C4642EB1C456A18A8
:1023000054F1000148BF7047B619524141EB010139
:10231000A3F10103704795F0000F37D04FEA114247
:102320004FEA144721EA024624EA074C02FB07F170
:1023300006FB07F70CFB06F402FB0CFC14EB07444E
:1023400041EB17414FEA154714EB0C4441EB1C419C
:1023500025EA074C02FB07F506FB07F70CFB06F620
:1023600002FB0CFC16EB074645EB174516EB0C463B
:1023700045EB1C42121951F1000148BF7047B619D4
:10238000524141EB0101A3F1010370474FEA1445AB
:102390004FEA114724EA054621EA074C05FB07F1FD
:1023A00006FB07F70CFB06F24FF0000605FB0CFCE2
:1023B00012EB074241EB174112EB0C4251EB1C416F
:1023C00048BF7047921841EB0101A3F10103704728
:1023D0004A494A6822F440324A604A6843681A43CC
:1023E0004A6001684A6822F480724A6001684A685B
:1023F000036942EA03224A6001684A6822F0407297
:102400004A6001684A6883681A434A6001688A68BA
:1024100022F400628A6001688A68C3681A438A608D
:10242000816A6FF07062D14214D001688A6822F02C
:1024300070628A6001688A68836A1A438A600168E8
:102440008A6822F040528A6001688A68C36A1A4327
:102450008A6009E001688A6822F070628A60016817
:102460008A6822F040528A6001688A6822F002027B
:102470008A6001688A68037E42EA43028A6090F8B3
:10248000201089B101684A6842F400624A6001681C
:102490004A6822F460424A6001684A68436A5B1EE7
:1024A00042EA43324A6004E001684A6822F400626A
:1024B0004A600168CA6A22F47002CA620168CA6A84
:1024C000838B5B1E42EA0352CA6201688A6822F467
:1024D00000728A6001688A6890F8303042EA4322CC
:1024E0008A6001688A6822F480628A6001688A686A
:1024F000406942EA80208860704700000023014064
:1025000010B52DED028BB0EE408AB0EE480A0DF00A
:1025100003FBBDEC028B10BD10B52DED028BB0EEB0
:10252000408AF0EE608AF0EE680AB0EE480A0DF0DC
:1025300089FBBDEC028B10BD10B52DED028BB0EE0A
:10254000408AB0EE480AFDF769FFBDEC028B10BD72
:10255000F0EE400AF5EEC00AF1EE10FA02DDB0EE40
:10256000600A7047B1EE600AFBE7000018B19FED0A
:10257000020A80ED000A70470000000018B1B3EEB7
:10258000060A80ED000A704770B52DED0C8B84B003
:1025900006460C4615469FED990AF0EE408A9FEDDF
:1025A000970AB0EE409A9FED950AF0EE40BA9FED83
:1025B000930AF0EE409A9FED910AB0EE40AA0EB158
:1025C00004B11DB904B0BDEC0C8B70BD8C48FFF795
:1025D000CDFF8C48FFF7D2FF8A48D0ED000A9FED6F
:1025E0008A1A60EE810AB0EE600A00F02DF9F0EE72
:1025F000408A28EEA80AF0EE408A8248D0ED000A10
:10260000B0EE001A60EE810A9FED7F1A60EE810A3B
:10261000B0EE600A00F018F9B0EE409A29EE090A0F
:10262000B0EE409ADFED790AB7EE000A00EEA80A94
:10263000DFED770A00EEC90ADFED760A20EE200A08
:10264000754880ED000A6E4890ED000ADFED730AD0
:1026500080EE201AB7EE000A31EE000A20EE000AE2
:102660006D48D0ED000A80EE801A6D4880ED001AAA
:1026700094ED000AB5EEC00AF1EE10FA0DD194ED1A
:10268000010AB5EEC00AF1EE10FA06D194ED020A85
:10269000B5EEC00AF1EE10FA46D09FED580AB0EE42
:1026A000408A0020019002900390D4ED000A60EE71
:1026B000A00A94ED011AD4ED011A41EE210A94ED1D
:1026C000021AD4ED021A41EE210AB0EE600A00F0BF
:1026D000A9F8B0EE408A94ED000A20EE080A8DEDCC
:1026E000010A94ED010A20EE080A8DED020A94ED2C
:1026F000020A20EE080A8DED030ADDED010AF1EE73
:10270000600AB0EE600AFFF7FBFEF0EE409A9DED26
:10271000031AF0EE410A9DED021AB0EE410AFFF7EE
:10272000FBFEB0EE40AA07E09FED340AF0EE409ABF
:102730009FED320AB0EE40AA95ED000AB5EEC00A50
:10274000F1EE10FA0DD195ED010AB5EEC00AF1EEE9
:1027500010FA06D195ED020AB5EEC00AF1EE10FAB4
:102760003CD0B0EE690A00F06FF8B0EE408AB0EEEF
:10277000690AFFF7E1FEB0EE40DAB0EE4A0A00F077
:1027800063F8F0EE40AAB0EE4A0AFFF7D5FEB0EECD
:1027900040BA28EE2A0AD5ED010A20EE200AD5ED2E
:1027A000000A0DEE200A68EE0B0A95ED021A00EE03
:1027B000810AB0EE40CA95ED010A20EE0B0AD5ED74
:1027C000020A0AEEE00AF0EE40CAF0EE6C0AB0EE41
:1027D0004C0AFFF7A1FEF0EE40BA03E09FED070AB6
:1027E000F0EE40BAB0EE4A1AF0EE690AB0EE6B0AAB
:1027F00030460FF05FFA00BFE4E600000000000082
:10280000040600200806002035FA8E3CC1BFAD3B0F
:102810009DF8C5362F7C1C410C060020506CC24A26
:102820001006002010B52DED028BB0EE408AB0EE00
:10283000480A0DF039FBB7EE001AC1EE000AB0EEFF
:10284000600ABDEC028B10BD10B52DED028BB0EE11
:10285000408AB0EE480AFDF71DFEBDEC028B10BDAC
:102860002DE9F0412DED028B9AB00546B0EE408A7D
:102870000E4617469846002017901890199014900D
:10288000159016904DB146B13FB1B8F1000F04D08C
:10289000B5EEC08AF1EE10FA05D100201AB0BDECF9
:1028A000028BBDE8F08196ED000A8DED170A96EDDA
:1028B000010A8DED180A96ED020A8DED190A97EDC1
:1028C000000A8DED140A97ED010A8DED150A97EDBA
:1028D000020A8DED160A17AA14A928460FF01EF851
:1028E000402104A8FEF720F90020009001900290FA
:1028F0000390002417A904A816F01AFE00BF30E0C8
:1029000004A800EB041090ED000AD5ED000A20EEBB
:10291000200A04A800EB0410D0ED010A95ED011A7D
:1029200000EE810A04A800EB0410D0ED020A95ED38
:10293000021A00EE810A04A800EB0410D0ED030A8D
:1029400095ED031A00EE810A20EE080AF0EE000A67
:1029500080EE201A684600EB840080ED001A601CAF
:10296000C4B2042CCCDB002410E005EB840090ED15
:10297000000A684600EB8400D0ED000A30EE200A21
:1029800005EB840080ED000A601CC4B2042CECDB73
:10299000284615F04FFA012080E7000010B501220B
:1029A0001021024802F037FC10BD00000000024078
:1029B00010B500221021024802F02DFC10BD0000CD
:1029C000000002407047000010B501221146024885
:1029D00002F021FC10BD00000004024010B50022EE
:1029E0000121024802F017FC10BD00000004024063
:1029F00010B543781B021BB20478234300EE103A53
:102A0000B8EEC01A1C4BD3ED001A21EE211A81ED4D
:102A1000001AC3781B021BB28478234300EE103ADD
:102A2000B8EEC01A144BD3ED001A21EE211A81ED35
:102A3000011A43791B021BB20479234300EE103ABA
:102A4000B8EEC01A0C4BD3ED001A21EE211A81ED1D
:102A5000021A037A1B04C47943EA042384792343CA
:102A600000EE903AB8EE601ADFED041A21EE211A5A
:102A700082ED001A10BD0000A803002000401C4297
:102A8000704710B50446204614F0BEFC10BD10B5CA
:102A90000446204611F024FC10BD000042781202CA
:102AA00012B203781A4300EE102AF8EEC00A144A54
:102AB00092ED001A60EE810AC1ED000AC27812029E
:102AC00012B283781A4300EE102AF8EEC00A0C4ABC
:102AD00092ED001A60EE810AC1ED010A42791202FC
:102AE00012B203791A4300EE102AF8EEC00A044A23
:102AF00092ED001A60EE810AC1ED020A70470000F3
:102B0000AC03002010B50024FFF75CFFFFF7B8FF0F
:102B10000FF042FA10B144F0800402E00FF0A2F985
:102B200004430FF031FC10B144F0400402E00FF018
:102B3000B1FB0443204610BD2DE9FC4105460E467D
:102B40001746002000900190FFF732FF922000F01E
:102B5000D1F806226946122000F0ACF8FFF71EFFFC
:102B60009DF80100000200B29DF8001040EA010447
:102B700000EE104AB8EEC00A4C48D0ED000A20EE34
:102B8000200A86ED000A9DF80300000200B29DF8BD
:102B9000021040EA010400EE104AB8EEC00A4348B1
:102BA000D0ED000A20EE200A86ED010A9DF805000E
:102BB000000200B29DF8041040EA010400EE104A41
:102BC000B8EEC00A3948D0ED000A20EE200A86EDA2
:102BD000020AFFF703FF08226946002000F06AF8A6
:102BE000FFF7F2FE9DF800000F2838D19DF8030092
:102BF000000200B29DF8021040EA010400EE104A03
:102C0000B8EEC00A2A48D0ED000A20EE200A85ED71
:102C1000000A9DF80500000200B29DF8041040EA89
:102C2000010400EE104AB8EEC00A2148D0ED000AB7
:102C300020EE200A85ED010A9DF80700000200B28F
:102C40009DF8061040EA010400EE104AB8EEC00AF2
:102C50001748D0ED000A20EE200A85ED020AFFF7A2
:102C6000A7FEA22000F046F802226946222000F0CA
:102C700021F8FFF793FE9DF80000C0009DF80110B9
:102C800040EA6114B4F5806F02DBA4F5006004B281
:102C900000EE104AF8EEC00AB4EE001AB3EE070ACE
:102CA00000EE810A87ED000ABDE8FC81A803002040
:102CB000AC03002070B506460C46154646F0800071
:102CC00000F018F806E0552000F014F82070641C9D
:102CD000681EC5B2002DF6D170BD70B504460D4614
:102CE00044F0800000F006F8552000F003F828704A
:102CF00070BD000001B582B04FF47A70012301AAC3
:102D000002A90090024804F0C3FA9DF804000EBD29
:102D1000640F002010B502461378DB00547843EAB4
:102D20006410B0F5806F02DBA0F5006318B200EE0E
:102D3000100AF8EEC00AB4EE001AB3EE070A00EE6D
:102D4000810A81ED000A10BD70B505460C46284683
:102D5000FFF7D0FF2046FFF7CDFF70BD00BFFEE7B5
:102D600010B5024801F035FB10BD0000880D0020B1
:102D700010B5024801F02DFB10BD0000B00D002081
:102D8000F8B507460C4615461E464FF400700D492F
:102D9000086000208860C86008200861380A0A4975
:102DA00008704F70200A8870CC70280A08714D7125
:102DB000300A8871CE716B460A460249034801F019
:102DC0003BF9F8BDC02E002048010020880D0020EE
:102DD00008B54FF4E0600C49086000208860C860C6
:102DE0000820086100200949087048708870C87080
:102DF000087148718871C8716B460A4602490448D7
:102E000001F01AF908BD0000C02E00204801002082
:102E1000880D0020F8B507460C4615461E4640F2C0
:102E2000FF100D49086000208860C8600820086114
:102E3000380A0A4908704F70200A8870CC70280A36
:102E400008714D71300A8871CE716B460A4602498D
:102E5000034801F0F1F8F8BDA82E00204001002041
:102E6000B00D00200346042B15D007DC7BB1012BED
:102E70000ED0022B0DD0032B12D10BE0202B0BD048
:102E8000212B0AD0222B09D0232B09D107E008E0FF
:102E900007E006E005E004E003E002E001E000E016
:102EA00000BF00BF002070470020704710B500220F
:102EB000044905480BF07DF9044903480BF073F908
:102EC000002010BD3825002094140020381D00205B
:102ED00070B504460D46214603480BF064F90248DC
:102EE0000BF040F9002070BD941400202DE9F04152
:102EF00004460D4600260A48D0F89072D7F814020E
:102F000010B10120BDE8F0812A46214604480BF0AB
:102F100050F903480BF0C8F906463046F2E70000C6
:102F2000941400201B48406800F0006080B31A48E9
:102F3000406B00681949884205D94FF00060174975
:102F40004C3908601CE01448406B00681149B831E6
:102F5000884205D94FF000601049503908600FE0F1
:102F60000D48406B00680B495831884204D94FF036
:102F700000600849C86003E04FF0006005498860C0
:102F800005480068006840F400700349096808605B
:102F900070470000006002402C0E00205864024080
:102FA00010B5024801F080FD10BD0000D4130020D0
:102FB00010B5FE48C06C0068FD49884276D9FC48CF
:102FC00054380068F949C96C0968FA4A914201D13C
:102FD000202169E0F549C96C0968F54A483A9142EF
:102FE00001D1202160E0F149C96C0968F14A6032E1
:102FF000914201D1202157E0EC49C96C0968EC4AA3
:103000001832914201D120214EE0E849C96C09688B
:10301000E84A1832914201D1C91445E0E349C96C2C
:103020000968E34A303A914201D1C9143CE0DF49D2
:10303000C96C0968DF4A7832914201D1C91433E082
:10304000DA49C96C0968DA4A3032914201D1C914AF
:103050002AE0D649C96C0968D64A3032914202D179
:103060004FF4001120E0D149C96C0968D04A183AE0
:10307000914202D14FF4001116E0CC49C96C0968A5
:10308000CC4A9032914202D14FF400110CE0C74972
:10309000C96C0968C64A4832914203D14FF4001105
:1030A00002E003E04FF00061084070E1BF48C06CEF
:1030B0000068C049A831884276D9BD4858380068B0
:1030C000BA49C96C0968BB4A914201D1202169E023
:1030D000B649C96C0968B64A483A914201D12021E3
:1030E00060E0B249C96C0968B24A6032914201D1CC
:1030F000202157E0AD49C96C0968AD4A18329142A8
:1031000001D120214EE0A949C96C0968A94A1832A9
:10311000914201D1C91445E0A449C96C0968A44A87
:10312000303A914201D1C9143CE0A049C96C096808
:10313000A04A7832914201D1C91433E09B49C96C4D
:1031400009689B4A3032914201D1C9142AE097495B
:10315000C96C0968974A3032914202D14FF400118C
:1031600020E09249C96C0968914A183A914202D10B
:103170004FF4001116E08D49C96C09688D4A9032F0
:10318000914202D14FF400110CE08849C96C0968E2
:10319000874A4832914203D14FF4001102E003E024
:1031A0004FF000610840F2E08048C06C006881493F
:1031B0004831884276D97F48103840687B49C96CCD
:1031C00009687C4A914201D1202169E07749C96CA4
:1031D0000968774A483A914201D1202160E0734959
:1031E000C96C0968734A6032914201D1202157E0CD
:1031F0006E49C96C09686E4A1832914201D120218A
:103200004EE06A49C96C09686A4A1832914201D194
:10321000C91445E06549C96C0968654A303A91426C
:1032200001D1C9143CE06149C96C0968614A78322E
:10323000914201D1C91433E05C49C96C09685C4A08
:103240003032914201D1C9142AE05849C96C096849
:10325000584A3032914202D14FF4001120E05349D4
:10326000C96C0968524A183A914202D14FF40011D0
:1032700016E04E49C96C09684E4A9032914202D11B
:103280004FF400110CE04949C96C0968484A4832BA
:10329000914203D14FF4001102E003E04FF00061CE
:1032A000084074E04348103800684049C96C096818
:1032B000404A914201D1202168E03C49C96C09682B
:1032C0003B4A483A914201D120215FE03749C96C1D
:1032D0000968384A6032914201D1202156E03349D1
:1032E000C96C0968324A1832914201D120214DE05F
:1032F0002E49C96C09682F4A1832914201D1C9146C
:1033000044E02A49C96C0968294A303A914201D1FE
:10331000C9143BE02549C96C0968264A78329142B4
:1033200001D1C91432E02149C96C0968204A303200
:10333000914201D1C91429E01C49C96C09681D4A90
:103340003032914202D14FF400111FE01749C96C8D
:103350000968174A183A914202D14FF4001115E05A
:103360001249C96C0968134A9032914202D14FF454
:1033700000110BE00D49C96C09680D4A48329142B1
:1033800002D14FF4001101E04FF000610840002825
:103390006FD00648C06C0068054988427BD9034855
:1033A000C06C00680349884208D105E0640F002022
:1033B0005864024010600240202068E0FE48C06C63
:1033C0000068FE49884201D1202060E0FA48C06CC4
:1033D0000068FB49884201D1202058E0F648C06CC3
:1033E0000068F6496031884201D120204FE0F24860
:1033F000C06C0068F2494839884201D1C01446E0E7
:10340000ED48C06C0068ED491831884201D1C01404
:103410003DE0E948C06C0068E9491831884201D1B3
:10342000C01434E0E448C06C0068E4497831884254
:1034300001D1C0142BE0E048C06C0068E04930398D
:10344000884202D14FF4001021E0DB48C06C0068D4
:10345000DA493031884202D14FF4001017E0D648E3
:10346000C06C0068D6493031884204D14FF4001056
:103470000DE0DFE10FE0D048C06C0068CF4990312B
:10348000884202D14FF4001001E04FF00060CB49B8
:10349000091F08606AE1C848C06C0068C849483123
:1034A000884274D9C448C06C0068C54960398842F4
:1034B00001D1202066E0C048C06C0068BF49884246
:1034C00001D120205EE0BC48C06C0068BC49884245
:1034D00001D1202056E0B848C06C0068B74960317F
:1034E000884201D120204DE0B348C06C0068B44947
:1034F0004839884201D1C01444E0AF48C06C00682C
:10350000AE491831884201D1C0143BE0AA48C06CD2
:103510000068AB491831884201D1C01432E0A64896
:10352000C06C0068A5497831884201D1C01429E0F7
:10353000A148C06C0068A2493039884202D14FF4DA
:1035400000101FE09C48C06C00689C4930318842E4
:1035500002D14FF4001015E09748C06C00689849FC
:103560003031884202D14FF400100BE09248C06C19
:10357000006892499031884202D14FF4001001E076
:103580004FF000608D4908390860EFE0FFE78A4896
:10359000C06C00688A491839884274D98648C06C62
:1035A000006887496039884201D1202066E082485E
:1035B000C06C00688149884201D120205EE07E48CD
:1035C000C06C00687E49884201D1202056E07A48CC
:1035D000C06C006879496031884201D120204DE0FB
:1035E0007548C06C006876494839884201D1C014DA
:1035F00044E07148C06C006870491831884201D1BC
:10360000C0143BE06C48C06C00686D4918318842BA
:1036100001D1C01432E06848C06C00686749783155
:10362000884201D1C01429E06348C06C0068644935
:103630003039884202D14FF400101FE05E48C06C60
:1036400000685E493031884202D14FF4001015E025
:103650005948C06C00685A493031884202D14FF451
:1036600000100BE05448C06C006854499031884207
:1036700002D14FF4001001E04FF000605049703962
:10368000C86073E0FFE74C48C06C00684C49603983
:10369000884201D1202066E04748C06C0068474955
:1036A000884201D120205EE04348C06C0068444954
:1036B000884201D1202056E03F48C06C00683F4955
:1036C0006031884201D120204DE03B48C06C006849
:1036D0003B494839884201D1C01444E03648C06CA7
:1036E000006836491831884201D1C0143BE03248A5
:1036F000C06C006832491831884201D1C01432E0F0
:103700002D48C06C00682D497831884201D1C01421
:1037100029E02948C06C006829493039884202D123
:103720004FF400101FE02448C06C0068234930317A
:10373000884202D14FF4001015E01F48C06C0068A9
:103740001F493031884202D14FF400100BE01A4873
:10375000C06C006819499031884202D14FF40010C2
:1037600001E04FF000601649703988601548007814
:1037700000F0020078B11348007820F002001149EF
:1037800008700846007840F00400087001221146D5
:103790000D4801F040FD0D48007800F00200E0B156
:1037A0000A48007820F002000849087008460078AE
:1037B00040F0040008700BE0640F00201064024029
:1037C0007060024039020020000402403A020020EA
:1037D00001221021184801F01EFD1848007800F061
:1037E000020078B11548007820F0020013490870F3
:1037F0000846007840F004000870012210210E48AD
:1038000001F009FD12F0ECFF0D48007800F0040013
:1038100080B10B48007820F0040009490870084680
:10382000007840F0080008700648006840F0010089
:103830000449086010BD0000000002403B02002067
:1038400039020020103C014010B5024801F02CF96B
:1038500010BD00003414002010B5024801F024F916
:1038600010BD00001413002001680A4BCAB2103AC0
:10387000A3FB02321209084B9B5CC365032A04D9DF
:103880006FF30901091D816502E06FF3090181658C
:10389000806D7047ABAAAAAA18E70108014600206C
:1038A0008A6A8B69002B0FD0B3F5005F1DD08AB3F5
:1038B000012A30D0022A2ED0032A04D1C96A11F07D
:1038C000807F00D0012070471AB1012A07D0022A58
:1038D000F9D1C96A11F0807FF5D001207047C96A1B
:1038E000B1F1C07FFAD1012070475AB1012A0BD043
:1038F000022A07D0032AF7D1C96AB1F1C07FF3D1F8
:103900000120704701207047C96A11F0807FFAD00A
:1039100001207047FFE701207047704710B5012074
:1039200001F058FB10BD10B5082001F053FB10BD8D
:1039300010B5102001F04EFB10BD10B5202001F095
:1039400049FB10BD704700000022002905D0012965
:103950001AD002291BD04FF440720E490B6823F491
:1039600040730B600B681A430A600A6822F0F80281
:103970000A600A68022343EAC0001043086008682E
:1039800040F48030086070474FF48072E5E74FF4F0
:103990000072E2E7103C02401448016811F4007F15
:1039A0000FD0016821F400710160016841F40061E9
:1039B0000160016821F400610160016841F4007157
:1039C0000160016811F4806F0FD0016821F48061FB
:1039D0000160016841F480510160016821F4805167
:1039E0000160016841F4806101607047003C024061
:1039F00008490A6822F440720A600A6842F0040228
:103A00000A600A684FF4803343EA002010430860DC
:103A100070470000103C0240064A136823F44073CC
:103A2000136013681360136843F00103136001709F
:103A300070470000103C02400A49D1F800C02CF445
:103A4000407CC1F800C0D1F800C04CF4407CC1F803
:103A500000C0D1F800C04CF0010CC1F800C00260F9
:103A600043607047103C0240074A136823F44073D8
:103A70001360136843F480731360136843F0010309
:103A80001360018070470000103C0240074A136831
:103A900023F440731360136843F4007313601368D6
:103AA00043F001031360016070470000103C0240C6
:103AB0001A49086810F0100F194805D0C26942F081
:103AC0001002C26110220A600A6812F0200F05D0AD
:103AD000C26942F00802C26120220A600A6812F03C
:103AE000400F05D0C26942F00402C26140220A6060
:103AF0000A6812F0800F05D0C26942F00202C2616A
:103B000080220A600A6812F0020F05D0C26942F0F2
:103B10002002C26102200860704700000C3C024095
:103B20001C48002070B5044614490020C86101F00B
:103B300079FB0646124D286810F4803F0ED0B4F190
:103B4000FF3F07D024B101F06DFB801BA04201D9DB
:103B5000032070BD286810F4803FF0D1286810F071
:103B6000010F01D001202860286810F0F20F03D067
:103B7000FFF79EFF012070BD002070BD1C48002093
:103B80000C3C024070B50A480468001D0568001D21
:103B90000668344454B108220649204605F05EF90F
:103BA000042204491031284605F058F970BD000080
:103BB000107AFF1F9A000020014890ED000A70471C
:103BC0007003002038B44FF0000CCDF800C090F81E
:103BD0003C20012A1BD0012280F83C200A680724DF
:103BE000092A17D90368DD680A3A02EB420204FA8F
:103BF00002F225EA0202DA600A788B680A3A02EBDE
:103C0000420293400268D4682343D36014E038BC76
:103C10000220704703681D6902EB420204FA02F2B7
:103C200025EA02021A610A788B6802EB420293408D
:103C300002681469234313614A681F24072A15D2B6
:103C400003685D6B521E02EB820204FA02F225EA5F
:103C500002025A630A8893B20A79521E02EB820268
:103C600093400268546B234353632CE00D2A15D212
:103C700003681D6BD21F02EB820204FA02F225EAEE
:103C800002021A630A8893B20A79D21F02EB8202F7
:103C900093400268146B2343136314E00368DD6AE6
:103CA0000D3A02EB820204FA02F225EA0202DA621B
:103CB0000A8893B20A790D3A02EB820293400268B5
:103CC000D46A2343D362184A184B04689C4206D135
:103CD0000C68122C03D1546844F4800454600468C6
:103CE0009C421CD10B68102B01D0112B17D15368AB
:103CF00043F4000353600968102910D10C490D4AA0
:103D00000968B1FBF2F101EB8101490000910099D2
:103D100029B10099491E009100990029F9D180F834
:103D20003CC038BC00207047002301400020014007
:103D3000C400002040420F000068C06C704770B59E
:103D400004460025002C03D0206C002610B107E0AB
:103D5000012070BD204600F01DF8666484F83C60C8
:103D6000206C10F0100F04D0012584F83C60284628
:103D700070BD206C20F4885040F002002064204682
:103D8000FEF726FB6664206C20F0020040F0010084
:103D90002064EAE710B586B00446142101A8FCF7B8
:103DA000C3FE2349206888420FD100BF0020009045
:103DB0002048006840F480701E490860084600688A
:103DC00000F48070009000BF2FE01B4920688842FB
:103DD0002BD100BF002000901648006840F480609E
:103DE000144908600846006800F48060009000BF35
:103DF00000BF00BF002000900E481438006840F05B
:103E000020000C49143908600846006800F02000C2
:103E1000009000BF00BF0815019003200290002011
:103E2000039001A9054801F0E1F806B010BD0000BB
:103E300000200140443802400022014000140240AA
:103E40002DE9F04104460D46206881684FF00007D7
:103E500011F4806F0CD0806810F4807F08D0206C43
:103E600040F02000206484F83C700120BDE8F0811F
:103E700001F0D8F906462068006810F0020F16D14C
:103E8000B5F1FF3F0ED025B101F0CCF9801BA8425F
:103E900008D9206C40F00400206484F83C700320B2
:103EA000BDE8F0812068006810F0020FE8D02168BA
:103EB0006FF012000860206C40F4007020642068ED
:103EC000816811F0405F15D1217E99B9C16A11F462
:103ED000700F03D0806810F4806F0BD1206C20F439
:103EE00080702064206C10F4805F03D1206C40F05F
:103EF000010020640020BDE8F081000081B00022B4
:103F0000009290F83C10012908D0012180F83C1063
:103F100001688B6813F0010F03D016E0022001B096
:103F200070478B6843F001038B603549354B096856
:103F3000B1FBF3F101EB41010091009929B1009926
:103F4000491E009100990029F9D101688B6813F08E
:103F5000010F51D0036C23F0010323F4C06343F439
:103F6000807303644B6813F4806F05D0036C23F4F3
:103F7000005343F480530364036C13F4805F04D054
:103F8000436C23F00603436400E0426480F83C2065
:103F90001D4A6FF022030B60516811F01F0F1B497F
:103FA00007D00068884227D1816811F0405F1FD098
:103FB00022E00068884212D0154A904204D1D1F81C
:103FC000042312F01F0F0AD0A0F18042B2F5913203
:103FD00012D1D1F8041301F01F0110290CD281680D
:103FE00011F0405F08D1816841F08041816003E0B9
:103FF000816841F080418160002001B0704700007D
:10400000C400002040420F00002301400020014076
:104010000021014090F82020012A07D0022A05D073
:10402000416A41F480214162012070470068426981
:10403000114341610020704770B490F82040D0F8DF
:1040400000C0DCF808C0012C08D0022C06D0416A60
:1040500041F48021416270BC012070470CF0806403
:104060000CF000652C4302D11CF0805F5FD0CCF3D4
:10407000016CBCF1020F06D9416A41F400014162B2
:1040800070BC01207047012404FA0CF41C608B689A
:104090004FF4C0749BB1CD6804EB0C162B434D68F4
:1040A00043EAC5030568AB514FF4C273066803EBDE
:1040B0000C130D69F550097D012909D00DE00D881B
:1040C000CB6804EB0C1643EA45530568AB51EBE7AC
:1040D0000168CD5845F48075CD501179D379557963
:1040E00041EA036193791B0443EA052319434FF422
:1040F000C675036805EB0C1559511178D37841EA60
:104100000361937852781B0443EA022211434FF46F
:10411000C473026803EB0C13D150016804EB0C105C
:104120000A5842F001020A5070BC00207047416AF0
:1041300041F40011416270BC0120704790F82020CA
:10414000012A07D0022A05D0416A41F48021416248
:10415000012070474248D0F8002242F00102C0F826
:104160000022D0F8002222F47C52C0F80022D0F8BD
:1041700000224B6A42EA0322C0F800220A7D012392
:1041800002F01F0203FA02F2D0F81C329343C0F887
:104190001C32CB69D3B9D0F80C329343C0F80C323F
:1041A000B1F80CC04B686CF31F43D1F814C000EB9E
:1041B000CC0CCCF84032B1F808C00B686CF31F434C
:1041C000D1F814C000EBCC0CCCF84432CB69012BF5
:1041D0001AD1D0F80C321343C0F80C32B1F800C039
:1041E0004B686CF31F43D1F814C000EBCC0CCCF837
:1041F0004032B1F808C0CB686CF31F43D1F814C04B
:1042000000EBCC0CCCF844328B697BB1D0F8043293
:104210001343C0F804320B6973B1D0F8143213435E
:10422000C0F81432096A01290CD010E0D0F8043229
:104230009343C0F80432EEE7D0F814329343C0F849
:104240001432EFE7D0F81C121143C0F81C12D0F85A
:10425000001221F00101C0F8001200207047000098
:1042600000640040704710B490F820C0BCF1010F0A
:1042700009D0BCF1020F06D0416A41F480214162AD
:1042800010BC0120704739B1D0F800C0DCF810C074
:104290001CF0030F7DD006E0D0F800C0DCF80CC0A5
:1042A0001CF0030F7BD04FF4D87C04680CEB011C8E
:1042B00054F80C4004F004049460002C7DD0046891
:1042C00054F80C40E4085460046854F80CC0CCF373
:1042D000400CC2F80CC04FF4DA7C04680CEB011CF3
:1042E00054F80C4004F00F041461046854F80C40B6
:1042F000C4F307249461046854F80CC04FEA1C4CC2
:10430000C2F814C04FF4DC72D0F800C002EB011206
:104310005CF802C083F800C0D0F800C05CF802C0AE
:104320004FEA1C2C83F801C0D0F800C05CF802C032
:104330004FEA1C4C83F802C0D0F800C05CF80220A1
:10434000120EDA704FF4DE72D0F800C002EB0112E8
:104350005CF802C083F804C0D0F800C05CF802C06A
:104360004FEA1C2C83F805C0D0F800C05CF802C0EE
:104370004FEA1C4C83F806C0D0F800C05CF802205D
:10438000120EDA71F9B10068016941F02001016192
:1043900002E00BE003E010E010BC00207047416A2F
:1043A00041F40011416210BC01207047416A41F4A0
:1043B0000011416210BC01207047046854F80C40A1
:1043C000640D146080E70068C16841F02001C1609D
:1043D000DEE72DE9F05F0546002428684669D0F83D
:1043E00004908768D0F80CA0D0F810B0D0F81880EE
:1043F00016F0010F54D017F0010F17D00121816082
:1044000017F0020F03D0284600F008FB0EE017F06B
:10441000040F02D04FF4006408E017F0080F02D038
:104420004FF4805402E0284600F0F7FA17F4807F3A
:1044300019D029684FF48070886017F4007F03D08A
:10444000284600F0EDFA0EE017F4806F02D044F435
:10445000005408E017F4006F02D044F4804402E0F6
:10446000284600F0DCFA17F4803F19D029684FF491
:104470008030886017F4003F03D0284600F0D2FA5D
:104480000EE017F4802F02D044F4004408E017F443
:10449000002F02D044F4803402E0284600F0C1FA34
:1044A00016F0080F07D01AF0100F04D044F400746F
:1044B00029681020C86016F0040F4FF0080707D0D5
:1044C0001AF0080F04D02868C760284600F000FAE8
:1044D00016F0020F07D02868C06810F0030F02D052
:1044E000284600F0F7F916F0400F07D01BF0100F28
:1044F00004D044F4806429681020086116F0200F6D
:1045000007D01BF0080F04D028680761284600F088
:104510004FFA16F0100F07D02868006910F0030F4B
:1045200002D0284600F045FA16F4003F08D019F0F2
:10453000100F05D0296810204860284600F03AFA8C
:1045400016F4803F07D019F0080F04D028684760A0
:10455000284600F068FA16F4004F4AD019F0040F0C
:1045600044D016F4807F04D018F0010F01D044F03D
:10457000010416F4007F04D018F0020F01D044F0BB
:10458000020416F4806F04D018F0040F01D044F038
:10459000040416F4006F29D018F0700F26D008F02C
:1045A0007000402815D006DC102809D020280AD039
:1045B000302816D10AE050280ED0602811D10EE024
:1045C00044F008040DE044F010040AE044F0200434
:1045D00007E044F0400404E044F0800401E044F4C7
:1045E00080742868816921F0700181612968042044
:1045F0004860002C05D0686A204368622846FFF7AF
:1046000031FEBDE8F09F70B50446002C03D094F84D
:10461000200010B104E0012070BD204600F0A8F891
:104620002068016821F00201016000F0FBFD0546F1
:10463000206840684FF0050610F0020F11D000F01E
:10464000F1FD401B0A2807D9606A40F4003060621F
:1046500084F82060012070BD2068406810F0020FCF
:10466000EDD12068016841F00101016000F0DAFD40
:1046700005462068406810F0010F11D100F0D2FD0E
:10468000401B0A2807D9606A40F40030606284F851
:104690002060012070BD2068406810F0010FEDD04F
:1046A000207E01283FD02068016821F08001016050
:1046B000607E01283DD02068016821F04001016042
:1046C000A07E01283BD02068016821F02001016014
:1046D000E07E012839D02068016841F010010160B6
:1046E000207F012837D02068016821F0080101608F
:1046F000607F012835D02068016821F00401016045
:10470000E168A06862690843216911430843616850
:10471000491E08432168C86100206062012084F8B6
:104720002000002070BD2068016841F08001016018
:10473000BEE72068016841F040010160C0E72068E1
:10474000016841F020010160C2E72068016821F0A2
:1047500010010160C4E72068016841F008010160B0
:10476000C6E72068016841F004010160C8E7000065
:1047700010B586B00446142101A8FCF7D5F94E49BE
:104780002068884241D14D480068401C4B49086070
:104790000846006801280FD100BF0020009048485B
:1047A000006840F00070464908600846006800F064
:1047B0000070009000BF00BF00BF00200090404884
:1047C0001038006840F008003D491039086008467C
:1047D000006800F00800009000BF00BF03200190B7
:1047E00002200290002003900320049009200590ED
:1047F00001A9344800F0FAFB00220621142001F040
:104800002DFA142001F01CFA54E02F492068884248
:1048100050D100BF002000902948006840F080601F
:10482000274908600846006800F08060009000BFDB
:1048300000BF22480068401C204908600846006804
:1048400001280FD100BF002000901D48006840F0F3
:1048500000701B4908600846006800F00070009076
:1048600000BF00BF00BF002000901548103800684E
:1048700040F002001249103908600846006800F054
:104880000200009000BF00BF602001900220029053
:1048900000200390032004900920059001A90B48F3
:1048A00000F0A4FB00220621402001F0D7F94020AF
:1048B00001F0C6F906B010BD0064004058000020A9
:1048C00040380240000C02400068004000040240F2
:1048D0007047000010B58AB0044601AB03AA00215E
:1048E0002046FFF7C0FC0398A0F20120072857D20A
:1048F000DFE800F00405060708090A0000BF00BF52
:1049000000BF00BF00BF00BF0398401E26490870CB
:104910000846007800EB8000244931F8100000B20E
:104920002149097801EB8101204A02EB410108810C
:104930009DF805009DF8041040EA01201A49097805
:1049400001EB810122F811009DF807009DF8061087
:1049500040EA012000B21449097801EB810102EB21
:10496000410148809DF809009DF8081040EA0120A7
:1049700000B20D49097801EB810102EB4101888009
:104980009DF80A000849097801EB810102EB410119
:10499000887105490978491CC8B20FF0C9FC00E0CC
:1049A00000BF00BF0AB010BD50010020602E0020E3
:1049B00070477047704770B5044694F8200001288E
:1049C00005D0606A40F400206062012070BD0220C2
:1049D00084F820002068016821F00101016000F0E6
:1049E00021FC05462068406810F0010F12D000F04D
:1049F00019FC401B0A2808D9606A40F40030606244
:104A0000052084F82000012070BD2068406810F067
:104A1000010FECD10020606270BD70477047704795
:104A2000704770477047704710B50446002C02D09D
:104A3000607910B106E0012010BD002020712046F1
:104A400000F006F80220607101206071002010BDA6
:104A500008B50A4A016891420FD100BF00210091B8
:104A60000749096841F48051054A116011460968F7
:104A700001F48051009100BF00BF08BD003002402A
:104A80003038024090F83510022903D0802141656A
:104A900001207047052180F835100068016821F079
:104AA00001010160002070472DE9F84304464FF0F2
:104AB0000008CDF8008076484FF416510068B0FB2E
:104AC000F1F7A56D2E6894F85C00082101FA00F05A
:104AD000304211D02068026812F0040F0CD0026836
:104AE00022F00402026094F85C0001FA00F0A86071
:104AF000606D40F00100606594F85C004FF00109C2
:104B000009FA00F0304209D02168496911F0800F9C
:104B100004D0A860606D40F00200606594F85C10FD
:104B200004208840304209D02168096811F0020F42
:104B300004D0A860606D40F00400606594F85C10DB
:104B400010208840304224D02168096811F0080FF5
:104B50001FD0A8602068016811F4802F0DD0006874
:104B600010F4002F04D0A16C99B12046884710E0C2
:104B7000216C71B1204688470BE0016811F4807FF9
:104B800003D1016821F008010160216C09B12046C0
:104B9000884794F85C1020208840304251D021682A
:104BA000096811F0100F4CD0A86094F83500052862
:104BB0000DD02068016811F4802F32D0006810F405
:104BC000002F29D0E16B59B32046884739E020688F
:104BD000016821F0160101602068416921F080011F
:104BE0004161206C08B9A06C20B12068016821F0F7
:104BF0000801016094F85C003F2101FA00F0A86010
:104C000084F8348084F83590216D00293ED001B0BD
:104C10002046BDE8F0430847616C09B1204688474B
:104C20000FE0016811F4807F07D1016821F01001C5
:104C3000016084F8348084F83590E16B09B1204636
:104C40008847606D002821D0606D10F0010F15D0ED
:104C5000052084F835002068016821F00101016019
:104C60000098401C0090B84204D82068006810F0FA
:104C7000010FF5D184F8348084F83590E16C002977
:104C800004D001B02046BDE8F0430847BDE8F883F2
:104C9000C40000202DE9F041044600F0C3FA0546A7
:104CA000DCB1002684F83460022084F835002068E6
:104CB000016821F0010101602068006810F0010F17
:104CC00013D000F0AFFA401B052809D920206065F9
:104CD000032084F83500BDE8F0810120BDE8F081B3
:104CE0002068006810F0010FEBD121680868234AA2
:104CF0001040A3686268D4F810C01A43E36843EA1E
:104D00000C031A4363691A43A3691A43E3691A43FC
:104D1000236A1A431043626A042A03D1236BE26AAE
:104D20001A43104308602068406920F00701606A58
:104D300040EA0105012704280ED1A06A0543E06A74
:104D400050B12046FEF7AAFD30B14020606584F8DE
:104D500035700120BDE8F081206845612046FEF7EE
:104D600083FD94F85C103F2202FA01F181606665D0
:104D700084F835700020BDE8F08100003F8010F01D
:104D800070B5044600F04EFA0546B4F1FF3F02D07C
:104D900004480078044400F045FA401BA042FAD3CE
:104DA00070BD0000D80300202DE9F04104460F46F5
:104DB000DFF8988098F8180001280AD0012088F8B8
:104DC00018004CF25030FEF7ADFE0246100003D042
:104DD00035E00220BDE8F0814FF0FF3038602068F8
:104DE0001B4E012815D0A568E0682844A84224D9A4
:104DF000217C2846FEF7A8FD4CF25030FEF792FECB
:104E00000246306820F0FA00306010000FD03D609C
:104E100013E0207C6168FEF7EBFD4CF25030FEF7AA
:104E200081FE0246306820F00400306005E06D1C11
:104E3000A168E0680844A842DAD8FEF7ADFD00207A
:104E400088F818001046BDE8F08100001C480020DA
:104E5000103C02400348016841F00041016000201D
:104E600070470000103C02402DE9F041064688469C
:104E700014461D461A4F387E012807D00120387687
:104E80004CF25030FEF74EFE18B115E00220BDE89E
:104E9000F081AEB1012E18D0022E1BD022462B4637
:104EA0004046FEF7C9FD4CF25030FEF73BFE0D497F
:104EB0000A6822F001020A6000213976BDE8F0811B
:104EC000E1B24046FEF7A8FDEDE7A1B24046FEF78D
:104ED000CBFDE8E721464046FEF7D8FDE3E70000BA
:104EE0001C480020103C0240002008490A6812F0CB
:104EF000004F09D0074A064B1360074B136009683F
:104F000011F0004F00D0012070470000103C02401B
:104F100023016745043C0240AB89EFCD10B5044640
:104F2000102C14D109200FF003FA2248007840F029
:104F30000100204908702048007840F001001E4917
:104F400008701E480078A0B311F04AFC31E0202C14
:104F50000ED108200FF0ECF91948007840F001005C
:104F6000174908701548007818B311F039FC20E093
:104F7000082C09D10A200FF0DBF91248007840F024
:104F800001001049087014E0012C12D115F04AFB01
:104F900001280ED00C490D48006814F029FE0A487B
:104FA000006830B120070A490860BFF34F8FBFF394
:104FB0006F8F10BD3A0200203B0200203D0200200E
:104FC000390200203C020020C4020020140200200C
:104FD00004ED00E010B504490A68024202D00860FE
:104FE000FFF79CFF10BD0000143C01402DE9F84F75
:104FF0000022DFF80082DFF80092DFF800A24FF015
:10500000030E0F27012303FA02F50B682B40AB4276
:105010007DD1D1F804C0BCF1020F02D0BCF1120F57
:1050200012D14FEAD20C00EB8C0CDCF82060540754
:10503000E40E07FA04FB26EA0B06D1F810B00BFACF
:1050400004F43443CCF8204006684FEA420C0EFAD0
:105050000CF4A64391F804B00BF0030B0BFA0CFB15
:105060004BEA060606604E68012E05D0022E03D0DC
:10507000112E01D0122E11D18668A643D1F80CB0A2
:105080000BFA0CFB4BEA06068660466826EA050525
:105090000E79C6F30016964035434560C56825EA8B
:1050A00004048D6805FA0CFC4CEA040CC0F80CC032
:1050B000D1F804C01CF0805F7DD0D8F800C04CF45B
:1050C000804CC8F800C0D8F800C00CF4804CCDF873
:1050D00000C022F0030C0CF1804404F59834D4F89D
:1050E00008C895072D0F07FA05F62CEA0606A0F169
:1050F000804CBCF5003C64D0A0F1804CBCF5013C78
:1051000062D0A0F1804CBCF5023C60D000E052E0DF
:10511000A0F1804CBCF5033C5CD0A0F1804CBCF508
:10512000043C5AD0A0F1804CBCF5053C58D0A0F10D
:10513000804CBCF5063C56D0A0F1804CBCF5073C39
:1051400054D04FF0080C0CFA05FC4CEA060CC4F8DD
:1051500008C8D9F800C02CEA030C4C6814F4803F4E
:1051600001D04CEA030CC9F800C0254CD4F800C0AB
:105170002CEA030C4D6815F4003F01D04CEA030CF7
:10518000C4F800C0DAF800C02CEA030C4C6814F430
:10519000801F01D04CEA030CCAF800C0194CD4F8A7
:1051A00000C02CEA030C4D6815F4001F01D04CEA36
:1051B000030CC4F800C0521C102AFFF423AFBDE852
:1051C000F88F4FF0000CBEE74FF0010CBBE74FF03B
:1051D000020CB8E74FF0030CB5E74FF0040CB2E750
:1051E0004FF0050CAFE74FF0060CACE74FF0070CA3
:1051F000A9E7000044380240003C0140083C01405F
:10520000043C01400C3C01400069084201D00120EF
:10521000704700207047002A01D08161704709045F
:10522000816170470148806870470000D803002002
:1052300070B50446002C04D094F83D00002510B150
:1052400006E0012070BD84F83C50204600F086FB4B
:10525000242084F83D002068016821F001010160EC
:1052600001F0BEFB544B6168994203D85349884210
:1052700003D304E05249884201D2012070BD514954
:10528000B0FBF1F12268D2F804C02CF03F0C4CEADC
:10529000010CC2F804C062689A4201D84A1C07E0B7
:1052A0004FF4967251434FF47A72B1FBF2F14A1CFB
:1052B0002168D1F820C02CF03F0C42EA0C020A62AF
:1052C0006168994210D84900401EB0FBF1F2521CAF
:1052D000C2F30B02042A01D2042026E0B0FBF1F055
:1052E000401CC0F30B0020E0A268002A50D001EB64
:1052F000C10303EB0113A0F1010CBCFBF3F35B1C36
:1053000043F480431B051B0D4AD0002A4AD001EB11
:10531000C10202EB0111401EB0FBF1F0401CC0F3D2
:105320000B0040F4804040F400402168CA6922F03C
:10533000FF0222F44F421043C861216AE069014331
:105340002068026822F0C00211430160E168206910
:1053500001432068826822F0FF0222F403421143D5
:105360008160A169606901432068C26822F0FF0280
:105370001143C1602068016841F0010101602564AA
:10538000202084F83D00256384F83E50002070BD45
:1053900001EB4103A0F1010CBCFBF3F35B1CB1E793
:1053A0000120C2E701EB4101401EB0FBF1F0401CBF
:1053B000C0F30B00B7E70000A086010080841E0048
:1053C00000093D0040420F002DE9F84F04468A468F
:1053D000904699460A9FFFF725FF064694F83D0040
:1053E000202802D00220BDE8F88F192301224C4961
:1053F0002046009603F020FA10B10220BDE8F88F95
:1054000094F83C00012808D0012084F83C00206872
:10541000016811F0010F03D006E00220BDE8F88F0B
:10542000016841F0010101602068016821F4006118
:105430000160212084F83D00102084F83E00002502
:105440002564C4F82480A4F82A90608D208535480E
:10545000E06233463A465146204602F0F5FF10B16D
:105460000120BDE8F88F2068416980690090208D97
:10547000002846D032463946204603F0DCFA50B1C7
:10548000206C042804D12068016841F40071016097
:105490000120BDE8F88F606A216800780861606AC1
:1054A00000F1010CC4F824C0608D401E6085208D81
:1054B000401E80B220852268516911F0040F0CD083
:1054C00058B19CF800001061606A401C6062608DF9
:1054D000401E6085208D401E20853246394620467C
:1054E00003F07CF950B1206C042804D120680168D5
:1054F00041F4007101600120BDE8F88F208D002883
:10550000B8D12068016841F400710160202084F85E
:105510003D0084F83E5084F83C500020BDE8F88FF0
:10552000020010000000FFFF2DE9FF4F83B004468A
:105530008A469346DDF84490DDF84080129EFFF7DE
:1055400071FE054694F83D00202803D007B00220E4
:10555000BDE8F08F19230122A0492046009503F0F1
:105560006BF918B107B00220BDE8F08F94F83C0049
:10557000012808D0012084F83C002068016811F05F
:10558000010F04D007E007B00220BDE8F08F0168EA
:1055900041F0010101602068016821F400610160AF
:1055A000222084F83D00402084F83E000027276434
:1055B000C4F82480A4F82A90608D20858848E06291
:1055C000019500965A4651462046069B02F08EFFF2
:1055D00018B107B00120BDE8F08F208D10B301286D
:1055E00029D0022835D02068416980690290208D39
:1055F000002800F0E880DFF8EC81208D032800F21D
:10560000B780012834D002284AD0334600224146D0
:105610002046009503F010F900286CD007B0012057
:10562000BDE8F08F2068416981690291016841F409
:1056300000710160DBE72068016821F4806101608E
:105640002068416981690291016841F4007101603B
:10565000CDE72068016821F480610160206801685D
:1056600041F4006101602068416980690290BEE7F1
:105670002A463146204603F0A0F918B107B00120B0
:10568000BDE8F08F20680069616A0870606A401C9C
:105690006062208D401E2085608D401E60858EE0FA
:1056A0003346002241462046009503F0C5F818B164
:1056B00007B00120BDE8F08F2068016841F4007157
:1056C000016020680069616A0870606A401C60625D
:1056D000218D491E2185618D491E618521680969D9
:1056E0000170606A401C6062208D401E2085608DC4
:1056F000401E608563E02068016821F480610160DC
:1057000020680069616A0870606A401C6062208DD0
:10571000401E2085608D401E608533460022414634
:105720002046009503F088F818B107B00120BDE8C5
:10573000F08F2068016841F4007101602068006901
:10574000616A0870606A401C6062218D491E218573
:10575000618D491E6185216809690170606A401C7C
:105760006062208D401E2085608D401E608526E091
:105770002A463146204603F020F918B107B001202F
:10578000BDE8F08F20680069616A0870606A401C9B
:105790006062218D491E2185618D491E61852268C7
:1057A000516911F0040F0AD011690170606A401C40
:1057B0006062208D401E2085608D401E6085208D9A
:1057C00000287FF41AAF202084F83D0084F83E7052
:1057D00084F83C7007B00020BDE8F08F0200100094
:1057E0000000FFFF040001002DE9FF4F83B00446D5
:1057F0008A469346DDF84490DDF84080129EFFF71C
:1058000011FD054694F83D00202803D007B0022082
:10581000BDE8F08F192301224E492046009503F080
:105820000BF818B107B00220BDE8F08F94F83C00E7
:10583000012808D0012084F83C002068016811F09C
:10584000010F04D007E007B00220BDE8F08F016827
:1058500041F0010101602068016821F400610160EC
:10586000212084F83D00402084F83E000027276472
:10587000C4F82480A4F82A90608D20853648E06220
:10588000019500965A4651462046069B02F0C8FEF6
:1058900018B107B00120BDE8F08F208D002836D068
:1058A0002A463146204603F0C6F858B1206C042839
:1058B00004D12068016841F40071016007B0012043
:1058C000BDE8F08F606A216800780861606A00F1C5
:1058D000010CC4F824C0208D401E80B22085618D4B
:1058E000491E61852368596911F0040F0CD058B125
:1058F0009CF800001861606A401C6062208D401EA8
:105900002085608D401E6085208D0028C8D12A46E4
:105910003146204602F062FF58B1206C042804D1C1
:105920002068016841F40071016007B00120BDE802
:10593000F08F2068016841F400710160202084F834
:105940003D0084F83E7084F83C7007B00020BDE84C
:10595000F08F0000020010000000FFFF10B586B0BD
:105960000446142101A8FBF7DFF873492068884238
:1059700030D100BF002000907048006840F0020065
:105980006E4908600846006800F00200009000BF01
:1059900000BF4FF44070019012200290012003904C
:1059A000032004900420059001A96548FFF71EFB21
:1059B00000BF0020009061481030006840F40010E3
:1059C0005E49103108600846006800F4001000903D
:1059D00000BFAFE05B492068884259D100BF00207A
:1059E00000905648006840F020005449086008467E
:1059F000006800F02000009000BF00BF032001906D
:105A000012200290012003900320049004200590AE
:105A100001A94D48FFF7EAFA00BF0020009047486F
:105A20001030006840F48000444910310860084696
:105A3000006800F48000009000BF00BF4348444964
:105A400008604FF06060486040214148816000215B
:105A5000C1604FF480610161002141618161C161D8
:105A60004FF40031016200214162FFF713F908B1E0
:105A7000FDF768FF00BF36486063846300BF3548A8
:105A80000068406840F4006032490968486051E0AD
:105A90003149206888424DD100BF0020009027483E
:105AA000006840F00400254908600846006800F0DE
:105AB0000400009000BF00BF00BF00200090084617
:105AC000006840F0010008600846006800F001002E
:105AD000009000BF00BF48150190122002900120E5
